{
	"_format": "hh-sol-artifact-1",
	"contractName": "Web3DevMarketplace",
	"sourceName": "contracts/Web3DevMarketplace.sol",
	"abi": [
		{
			"inputs": [],
			"stateMutability": "nonpayable",
			"type": "constructor"
		},
		{
			"anonymous": false,
			"inputs": [
				{
					"indexed": true,
					"internalType": "uint256",
					"name": "activityId",
					"type": "uint256"
				}
			],
			"name": "ActivityApproved",
			"type": "event"
		},
		{
			"anonymous": false,
			"inputs": [
				{
					"indexed": true,
					"internalType": "uint256",
					"name": "activityId",
					"type": "uint256"
				},
				{
					"indexed": true,
					"internalType": "address",
					"name": "member",
					"type": "address"
				}
			],
			"name": "ActivityAssigned",
			"type": "event"
		},
		{
			"anonymous": false,
			"inputs": [
				{
					"indexed": true,
					"internalType": "uint256",
					"name": "activityId",
					"type": "uint256"
				}
			],
			"name": "ActivityCompleted",
			"type": "event"
		},
		{
			"anonymous": false,
			"inputs": [
				{
					"indexed": true,
					"internalType": "uint256",
					"name": "activityId",
					"type": "uint256"
				}
			],
			"name": "ActivityCreated",
			"type": "event"
		},
		{
			"anonymous": false,
			"inputs": [
				{
					"indexed": true,
					"internalType": "uint256",
					"name": "activityId",
					"type": "uint256"
				}
			],
			"name": "ActivityDeleted",
			"type": "event"
		},
		{
			"anonymous": false,
			"inputs": [
				{
					"indexed": true,
					"internalType": "uint256",
					"name": "activityId",
					"type": "uint256"
				}
			],
			"name": "ActivityRejected",
			"type": "event"
		},
		{
			"anonymous": false,
			"inputs": [
				{
					"indexed": true,
					"internalType": "address",
					"name": "owner",
					"type": "address"
				},
				{
					"indexed": true,
					"internalType": "address",
					"name": "approved",
					"type": "address"
				},
				{
					"indexed": true,
					"internalType": "uint256",
					"name": "tokenId",
					"type": "uint256"
				}
			],
			"name": "Approval",
			"type": "event"
		},
		{
			"anonymous": false,
			"inputs": [
				{
					"indexed": true,
					"internalType": "address",
					"name": "owner",
					"type": "address"
				},
				{
					"indexed": true,
					"internalType": "address",
					"name": "operator",
					"type": "address"
				},
				{
					"indexed": false,
					"internalType": "bool",
					"name": "approved",
					"type": "bool"
				}
			],
			"name": "ApprovalForAll",
			"type": "event"
		},
		{
			"anonymous": false,
			"inputs": [
				{
					"indexed": true,
					"internalType": "bytes32",
					"name": "role",
					"type": "bytes32"
				},
				{
					"indexed": true,
					"internalType": "bytes32",
					"name": "previousAdminRole",
					"type": "bytes32"
				},
				{
					"indexed": true,
					"internalType": "bytes32",
					"name": "newAdminRole",
					"type": "bytes32"
				}
			],
			"name": "RoleAdminChanged",
			"type": "event"
		},
		{
			"anonymous": false,
			"inputs": [
				{
					"indexed": true,
					"internalType": "bytes32",
					"name": "role",
					"type": "bytes32"
				},
				{
					"indexed": true,
					"internalType": "address",
					"name": "account",
					"type": "address"
				},
				{
					"indexed": true,
					"internalType": "address",
					"name": "sender",
					"type": "address"
				}
			],
			"name": "RoleGranted",
			"type": "event"
		},
		{
			"anonymous": false,
			"inputs": [
				{
					"indexed": true,
					"internalType": "bytes32",
					"name": "role",
					"type": "bytes32"
				},
				{
					"indexed": true,
					"internalType": "address",
					"name": "account",
					"type": "address"
				},
				{
					"indexed": true,
					"internalType": "address",
					"name": "sender",
					"type": "address"
				}
			],
			"name": "RoleRevoked",
			"type": "event"
		},
		{
			"anonymous": false,
			"inputs": [
				{
					"indexed": true,
					"internalType": "address",
					"name": "from",
					"type": "address"
				},
				{
					"indexed": true,
					"internalType": "address",
					"name": "to",
					"type": "address"
				},
				{
					"indexed": true,
					"internalType": "uint256",
					"name": "tokenId",
					"type": "uint256"
				}
			],
			"name": "Transfer",
			"type": "event"
		},
		{
			"inputs": [],
			"name": "DEFAULT_ADMIN_ROLE",
			"outputs": [
				{
					"internalType": "bytes32",
					"name": "",
					"type": "bytes32"
				}
			],
			"stateMutability": "view",
			"type": "function"
		},
		{
			"inputs": [],
			"name": "LEADER_ROLE",
			"outputs": [
				{
					"internalType": "bytes32",
					"name": "",
					"type": "bytes32"
				}
			],
			"stateMutability": "view",
			"type": "function"
		},
		{
			"inputs": [],
			"name": "MEMBER_ROLE",
			"outputs": [
				{
					"internalType": "bytes32",
					"name": "",
					"type": "bytes32"
				}
			],
			"stateMutability": "view",
			"type": "function"
		},
		{
			"inputs": [
				{
					"internalType": "uint256",
					"name": "",
					"type": "uint256"
				}
			],
			"name": "activities",
			"outputs": [
				{
					"internalType": "uint256",
					"name": "id",
					"type": "uint256"
				},
				{
					"internalType": "string",
					"name": "title",
					"type": "string"
				},
				{
					"internalType": "string",
					"name": "description",
					"type": "string"
				},
				{
					"internalType": "uint256",
					"name": "reward",
					"type": "uint256"
				},
				{
					"internalType": "address",
					"name": "createdBy",
					"type": "address"
				},
				{
					"internalType": "address",
					"name": "assignedTo",
					"type": "address"
				},
				{
					"internalType": "uint256",
					"name": "requiredApprovals",
					"type": "uint256"
				},
				{
					"internalType": "uint256",
					"name": "approvalsReceived",
					"type": "uint256"
				},
				{
					"internalType": "enum Web3DevMarketplace.Status",
					"name": "status",
					"type": "uint8"
				}
			],
			"stateMutability": "view",
			"type": "function"
		},
		{
			"inputs": [
				{
					"internalType": "address",
					"name": "to",
					"type": "address"
				},
				{
					"internalType": "uint256",
					"name": "tokenId",
					"type": "uint256"
				}
			],
			"name": "approve",
			"outputs": [],
			"stateMutability": "nonpayable",
			"type": "function"
		},
		{
			"inputs": [
				{
					"internalType": "uint256",
					"name": "activityId",
					"type": "uint256"
				}
			],
			"name": "approveActivity",
			"outputs": [],
			"stateMutability": "nonpayable",
			"type": "function"
		},
		{
			"inputs": [
				{
					"internalType": "uint256",
					"name": "",
					"type": "uint256"
				},
				{
					"internalType": "uint256",
					"name": "",
					"type": "uint256"
				}
			],
			"name": "approvers",
			"outputs": [
				{
					"internalType": "address",
					"name": "",
					"type": "address"
				}
			],
			"stateMutability": "view",
			"type": "function"
		},
		{
			"inputs": [
				{
					"internalType": "uint256",
					"name": "activityId",
					"type": "uint256"
				}
			],
			"name": "assignActivity",
			"outputs": [],
			"stateMutability": "nonpayable",
			"type": "function"
		},
		{
			"inputs": [
				{
					"internalType": "address",
					"name": "owner",
					"type": "address"
				}
			],
			"name": "balanceOf",
			"outputs": [
				{
					"internalType": "uint256",
					"name": "",
					"type": "uint256"
				}
			],
			"stateMutability": "view",
			"type": "function"
		},
		{
			"inputs": [
				{
					"internalType": "uint256",
					"name": "activityId",
					"type": "uint256"
				}
			],
			"name": "completeActivity",
			"outputs": [],
			"stateMutability": "nonpayable",
			"type": "function"
		},
		{
			"inputs": [
				{
					"internalType": "string",
					"name": "title",
					"type": "string"
				},
				{
					"internalType": "string",
					"name": "description",
					"type": "string"
				},
				{
					"internalType": "uint256",
					"name": "reward",
					"type": "uint256"
				},
				{
					"internalType": "uint256",
					"name": "requiredApprovals",
					"type": "uint256"
				},
				{
					"internalType": "string",
					"name": "tokenUri",
					"type": "string"
				}
			],
			"name": "createActivity",
			"outputs": [
				{
					"internalType": "uint256",
					"name": "",
					"type": "uint256"
				}
			],
			"stateMutability": "nonpayable",
			"type": "function"
		},
		{
			"inputs": [
				{
					"internalType": "uint256",
					"name": "activityId",
					"type": "uint256"
				}
			],
			"name": "deleteActivity",
			"outputs": [],
			"stateMutability": "nonpayable",
			"type": "function"
		},
		{
			"inputs": [],
			"name": "deposit",
			"outputs": [],
			"stateMutability": "payable",
			"type": "function"
		},
		{
			"inputs": [
				{
					"internalType": "uint256",
					"name": "tokenId",
					"type": "uint256"
				}
			],
			"name": "getApproved",
			"outputs": [
				{
					"internalType": "address",
					"name": "",
					"type": "address"
				}
			],
			"stateMutability": "view",
			"type": "function"
		},
		{
			"inputs": [],
			"name": "getBalance",
			"outputs": [
				{
					"internalType": "uint256",
					"name": "",
					"type": "uint256"
				}
			],
			"stateMutability": "view",
			"type": "function"
		},
		{
			"inputs": [],
			"name": "getContractBalance",
			"outputs": [
				{
					"internalType": "uint256",
					"name": "",
					"type": "uint256"
				}
			],
			"stateMutability": "view",
			"type": "function"
		},
		{
			"inputs": [
				{
					"internalType": "bytes32",
					"name": "role",
					"type": "bytes32"
				}
			],
			"name": "getRoleAdmin",
			"outputs": [
				{
					"internalType": "bytes32",
					"name": "",
					"type": "bytes32"
				}
			],
			"stateMutability": "view",
			"type": "function"
		},
		{
			"inputs": [],
			"name": "getTokenCount",
			"outputs": [
				{
					"internalType": "uint256",
					"name": "",
					"type": "uint256"
				}
			],
			"stateMutability": "view",
			"type": "function"
		},
		{
			"inputs": [
				{
					"internalType": "address",
					"name": "user",
					"type": "address"
				}
			],
			"name": "getUserActivities",
			"outputs": [
				{
					"internalType": "uint256[]",
					"name": "",
					"type": "uint256[]"
				}
			],
			"stateMutability": "view",
			"type": "function"
		},
		{
			"inputs": [
				{
					"internalType": "bytes32",
					"name": "role",
					"type": "bytes32"
				},
				{
					"internalType": "address",
					"name": "account",
					"type": "address"
				}
			],
			"name": "grantRole",
			"outputs": [],
			"stateMutability": "nonpayable",
			"type": "function"
		},
		{
			"inputs": [
				{
					"internalType": "bytes32",
					"name": "role",
					"type": "bytes32"
				},
				{
					"internalType": "address",
					"name": "account",
					"type": "address"
				}
			],
			"name": "hasRole",
			"outputs": [
				{
					"internalType": "bool",
					"name": "",
					"type": "bool"
				}
			],
			"stateMutability": "view",
			"type": "function"
		},
		{
			"inputs": [
				{
					"internalType": "address",
					"name": "owner",
					"type": "address"
				},
				{
					"internalType": "address",
					"name": "operator",
					"type": "address"
				}
			],
			"name": "isApprovedForAll",
			"outputs": [
				{
					"internalType": "bool",
					"name": "",
					"type": "bool"
				}
			],
			"stateMutability": "view",
			"type": "function"
		},
		{
			"inputs": [
				{
					"internalType": "uint256",
					"name": "activityId",
					"type": "uint256"
				},
				{
					"internalType": "address",
					"name": "leader",
					"type": "address"
				}
			],
			"name": "isApprover",
			"outputs": [
				{
					"internalType": "bool",
					"name": "",
					"type": "bool"
				}
			],
			"stateMutability": "view",
			"type": "function"
		},
		{
			"inputs": [],
			"name": "name",
			"outputs": [
				{
					"internalType": "string",
					"name": "",
					"type": "string"
				}
			],
			"stateMutability": "view",
			"type": "function"
		},
		{
			"inputs": [
				{
					"internalType": "uint256",
					"name": "tokenId",
					"type": "uint256"
				}
			],
			"name": "ownerOf",
			"outputs": [
				{
					"internalType": "address",
					"name": "",
					"type": "address"
				}
			],
			"stateMutability": "view",
			"type": "function"
		},
		{
			"inputs": [
				{
					"internalType": "uint256",
					"name": "activityId",
					"type": "uint256"
				}
			],
			"name": "rejectActivity",
			"outputs": [],
			"stateMutability": "nonpayable",
			"type": "function"
		},
		{
			"inputs": [
				{
					"internalType": "bytes32",
					"name": "role",
					"type": "bytes32"
				},
				{
					"internalType": "address",
					"name": "account",
					"type": "address"
				}
			],
			"name": "renounceRole",
			"outputs": [],
			"stateMutability": "nonpayable",
			"type": "function"
		},
		{
			"inputs": [
				{
					"internalType": "bytes32",
					"name": "role",
					"type": "bytes32"
				},
				{
					"internalType": "address",
					"name": "account",
					"type": "address"
				}
			],
			"name": "revokeRole",
			"outputs": [],
			"stateMutability": "nonpayable",
			"type": "function"
		},
		{
			"inputs": [
				{
					"internalType": "address",
					"name": "from",
					"type": "address"
				},
				{
					"internalType": "address",
					"name": "to",
					"type": "address"
				},
				{
					"internalType": "uint256",
					"name": "tokenId",
					"type": "uint256"
				}
			],
			"name": "safeTransferFrom",
			"outputs": [],
			"stateMutability": "nonpayable",
			"type": "function"
		},
		{
			"inputs": [
				{
					"internalType": "address",
					"name": "from",
					"type": "address"
				},
				{
					"internalType": "address",
					"name": "to",
					"type": "address"
				},
				{
					"internalType": "uint256",
					"name": "tokenId",
					"type": "uint256"
				},
				{
					"internalType": "bytes",
					"name": "data",
					"type": "bytes"
				}
			],
			"name": "safeTransferFrom",
			"outputs": [],
			"stateMutability": "nonpayable",
			"type": "function"
		},
		{
			"inputs": [
				{
					"internalType": "address",
					"name": "operator",
					"type": "address"
				},
				{
					"internalType": "bool",
					"name": "approved",
					"type": "bool"
				}
			],
			"name": "setApprovalForAll",
			"outputs": [],
			"stateMutability": "nonpayable",
			"type": "function"
		},
		{
			"inputs": [
				{
					"internalType": "bytes4",
					"name": "interfaceId",
					"type": "bytes4"
				}
			],
			"name": "supportsInterface",
			"outputs": [
				{
					"internalType": "bool",
					"name": "",
					"type": "bool"
				}
			],
			"stateMutability": "view",
			"type": "function"
		},
		{
			"inputs": [],
			"name": "symbol",
			"outputs": [
				{
					"internalType": "string",
					"name": "",
					"type": "string"
				}
			],
			"stateMutability": "view",
			"type": "function"
		},
		{
			"inputs": [
				{
					"internalType": "uint256",
					"name": "index",
					"type": "uint256"
				}
			],
			"name": "tokenByIndex",
			"outputs": [
				{
					"internalType": "uint256",
					"name": "",
					"type": "uint256"
				}
			],
			"stateMutability": "view",
			"type": "function"
		},
		{
			"inputs": [
				{
					"internalType": "address",
					"name": "owner",
					"type": "address"
				},
				{
					"internalType": "uint256",
					"name": "index",
					"type": "uint256"
				}
			],
			"name": "tokenOfOwnerByIndex",
			"outputs": [
				{
					"internalType": "uint256",
					"name": "",
					"type": "uint256"
				}
			],
			"stateMutability": "view",
			"type": "function"
		},
		{
			"inputs": [
				{
					"internalType": "uint256",
					"name": "tokenId",
					"type": "uint256"
				}
			],
			"name": "tokenURI",
			"outputs": [
				{
					"internalType": "string",
					"name": "",
					"type": "string"
				}
			],
			"stateMutability": "view",
			"type": "function"
		},
		{
			"inputs": [],
			"name": "totalSupply",
			"outputs": [
				{
					"internalType": "uint256",
					"name": "",
					"type": "uint256"
				}
			],
			"stateMutability": "view",
			"type": "function"
		},
		{
			"inputs": [
				{
					"internalType": "address",
					"name": "from",
					"type": "address"
				},
				{
					"internalType": "address",
					"name": "to",
					"type": "address"
				},
				{
					"internalType": "uint256",
					"name": "tokenId",
					"type": "uint256"
				}
			],
			"name": "transferFrom",
			"outputs": [],
			"stateMutability": "nonpayable",
			"type": "function"
		},
		{
			"inputs": [
				{
					"internalType": "address",
					"name": "",
					"type": "address"
				},
				{
					"internalType": "uint256",
					"name": "",
					"type": "uint256"
				}
			],
			"name": "userActivities",
			"outputs": [
				{
					"internalType": "uint256",
					"name": "",
					"type": "uint256"
				}
			],
			"stateMutability": "view",
			"type": "function"
		}
	],
	"bytecode": "0x60806040523480156200001157600080fd5b50604080518082018252600f81526e57656233446576416374697669747960881b6020808301918252835180850190945260048452635744414360e01b90840152815191929162000065916001916200016f565b5080516200007b9060029060208401906200016f565b506200008d91506000905033620000bf565b620000b97fa870f1a91ab66a18174ae285449a007bea36a28441e5b44a847deb90f83e86eb33620000bf565b62000252565b620000cb8282620000cf565b5050565b6000828152602081815260408083206001600160a01b038516845290915290205460ff16620000cb576000828152602081815260408083206001600160a01b03851684529091529020805460ff191660011790556200012b3390565b6001600160a01b0316816001600160a01b0316837f2f8788117e7eff1d82e926ec794901d17c78024a50270940304540a733656f0d60405160405180910390a45050565b8280546200017d9062000215565b90600052602060002090601f016020900481019282620001a15760008555620001ec565b82601f10620001bc57805160ff1916838001178555620001ec565b82800160010185558215620001ec579182015b82811115620001ec578251825591602001919060010190620001cf565b50620001fa929150620001fe565b5090565b5b80821115620001fa5760008155600101620001ff565b600181811c908216806200022a57607f821691505b602082108114156200024c57634e487b7160e01b600052602260045260246000fd5b50919050565b6135ee80620002626000396000f3fe6080604052600436106102305760003560e01c806370a082311161012e578063b88d4fde116100ab578063d0e30db01161006f578063d0e30db0146106b4578063d547741f146106bc578063df1bd99f146106dc578063e722cd53146106fc578063e985e9c51461071c57600080fd5b8063b88d4fde14610614578063c3759eb814610634578063c458b43d14610654578063c87b56dd14610674578063c888de441461069457600080fd5b8063a10f469e116100f2578063a10f469e1461055c578063a217fddf14610590578063a22cb465146105a5578063a2e4aff0146105c5578063b42696c8146105e757600080fd5b806370a08231146104d257806378a89567146104f257806391d148541461050757806395d89b41146105275780639fe7456e1461053c57600080fd5b80632abf5ff2116101bc57806342842e0e1161018057806342842e0e1461043f5780634f6ccce71461045f578063548b29a31461047f5780636352211e1461049f5780636f9fb98a146104bf57600080fd5b80632abf5ff21461039f5780632e092f9d146103bf5780632f2ff15d146103df5780632f745c59146103ff57806336568abe1461041f57600080fd5b80630d1657e8116102035780630d1657e8146102e657806312065fe01461031b57806318160ddd1461033a57806323b872dd1461034f578063248a9ca31461036f57600080fd5b806301ffc9a71461023557806306fdde031461026a578063081812fc1461028c578063095ea7b3146102c4575b600080fd5b34801561024157600080fd5b5061025561025036600461302d565b610765565b60405190151581526020015b60405180910390f35b34801561027657600080fd5b5061027f610776565b6040516102619190613276565b34801561029857600080fd5b506102ac6102a7366004612ff1565b610808565b6040516001600160a01b039091168152602001610261565b3480156102d057600080fd5b506102e46102df366004612fc7565b61082f565b005b3480156102f257600080fd5b50610306610301366004612ff1565b61094a565b6040516102619998979695949392919061339d565b34801561032757600080fd5b50600d545b604051908152602001610261565b34801561034657600080fd5b50600a5461032c565b34801561035b57600080fd5b506102e461036a366004612ed3565b610ab4565b34801561037b57600080fd5b5061032c61038a366004612ff1565b60009081526020819052604090206001015490565b3480156103ab57600080fd5b506102ac6103ba366004613103565b610ae5565b3480156103cb57600080fd5b5061032c6103da366004612fc7565b610b1d565b3480156103eb57600080fd5b506102e46103fa36600461300a565b610b4e565b34801561040b57600080fd5b5061032c61041a366004612fc7565b610b73565b34801561042b57600080fd5b506102e461043a36600461300a565b610c09565b34801561044b57600080fd5b506102e461045a366004612ed3565b610c87565b34801561046b57600080fd5b5061032c61047a366004612ff1565b610ca2565b34801561048b57600080fd5b5061032c61049a366004613067565b610d35565b3480156104ab57600080fd5b506102ac6104ba366004612ff1565b611030565b3480156104cb57600080fd5b504761032c565b3480156104de57600080fd5b5061032c6104ed366004612e85565b611090565b3480156104fe57600080fd5b5061032c611116565b34801561051357600080fd5b5061025561052236600461300a565b611126565b34801561053357600080fd5b5061027f61114f565b34801561054857600080fd5b506102e4610557366004612ff1565b61115e565b34801561056857600080fd5b5061032c7f829b824e2329e205435d941c9f13baf578548505283d29261236d8e6596d463681565b34801561059c57600080fd5b5061032c600081565b3480156105b157600080fd5b506102e46105c0366004612f8b565b6113b3565b3480156105d157600080fd5b5061032c60008051602061359983398151915281565b3480156105f357600080fd5b50610607610602366004612e85565b6113be565b6040516102619190613232565b34801561062057600080fd5b506102e461062f366004612f0f565b61142a565b34801561064057600080fd5b5061025561064f36600461300a565b611462565b34801561066057600080fd5b506102e461066f366004612ff1565b61152d565b34801561068057600080fd5b5061027f61068f366004612ff1565b6116a2565b3480156106a057600080fd5b506102e46106af366004612ff1565b6116ad565b6102e461184b565b3480156106c857600080fd5b506102e46106d736600461300a565b6118c2565b3480156106e857600080fd5b506102e46106f7366004612ff1565b6118e7565b34801561070857600080fd5b506102e4610717366004612ff1565b611a46565b34801561072857600080fd5b50610255610737366004612ea0565b6001600160a01b03918216600090815260066020908152604080832093909416825291909152205460ff1690565b600061077082611bc3565b92915050565b606060018054610785906134be565b80601f01602080910402602001604051908101604052809291908181526020018280546107b1906134be565b80156107fe5780601f106107d3576101008083540402835291602001916107fe565b820191906000526020600020905b8154815290600101906020018083116107e157829003601f168201915b5050505050905090565b600061081382611be8565b506000908152600560205260409020546001600160a01b031690565b600061083a82611030565b9050806001600160a01b0316836001600160a01b031614156108ad5760405162461bcd60e51b815260206004820152602160248201527f4552433732313a20617070726f76616c20746f2063757272656e74206f776e656044820152603960f91b60648201526084015b60405180910390fd5b336001600160a01b03821614806108c957506108c98133610737565b61093b5760405162461bcd60e51b815260206004820152603d60248201527f4552433732313a20617070726f76652063616c6c6572206973206e6f7420746f60448201527f6b656e206f776e6572206f7220617070726f76656420666f7220616c6c00000060648201526084016108a4565b6109458383611c47565b505050565b600e602052600090815260409020805460018201805491929161096c906134be565b80601f0160208091040260200160405190810160405280929190818152602001828054610998906134be565b80156109e55780601f106109ba576101008083540402835291602001916109e5565b820191906000526020600020905b8154815290600101906020018083116109c857829003601f168201915b5050505050908060020180546109fa906134be565b80601f0160208091040260200160405190810160405280929190818152602001828054610a26906134be565b8015610a735780601f10610a4857610100808354040283529160200191610a73565b820191906000526020600020905b815481529060010190602001808311610a5657829003601f168201915b5050505060038301546004840154600585015460068601546007870154600890970154959693956001600160a01b0393841695509290911692909160ff1689565b610abe3382611cb5565b610ada5760405162461bcd60e51b81526004016108a490613289565b610945838383611d34565b60106020528160005260406000208181548110610b0157600080fd5b6000918252602090912001546001600160a01b03169150829050565b600f6020528160005260406000208181548110610b3957600080fd5b90600052602060002001600091509150505481565b600082815260208190526040902060010154610b6981611ea5565b6109458383611eaf565b6000610b7e83611090565b8210610be05760405162461bcd60e51b815260206004820152602b60248201527f455243373231456e756d657261626c653a206f776e657220696e646578206f7560448201526a74206f6620626f756e647360a81b60648201526084016108a4565b506001600160a01b03919091166000908152600860209081526040808320938352929052205490565b6001600160a01b0381163314610c795760405162461bcd60e51b815260206004820152602f60248201527f416363657373436f6e74726f6c3a2063616e206f6e6c792072656e6f756e636560448201526e103937b632b9903337b91039b2b63360891b60648201526084016108a4565b610c838282611f33565b5050565b6109458383836040518060200160405280600081525061142a565b6000610cad600a5490565b8210610d105760405162461bcd60e51b815260206004820152602c60248201527f455243373231456e756d657261626c653a20676c6f62616c20696e646578206f60448201526b7574206f6620626f756e647360a01b60648201526084016108a4565b600a8281548110610d2357610d23613556565b90600052602060002001549050919050565b6000610d4f60008051602061359983398151915233611126565b610d6b5760405162461bcd60e51b81526004016108a49061336d565b83600d541015610db45760405162461bcd60e51b8152602060048201526014602482015273496e73756666696369656e742062616c616e636560601b60448201526064016108a4565b610dc2600c80546001019055565b6000610dcd600c5490565b9050610dd93382611f98565b610de38184612131565b6000604051806101200160405280838152602001898152602001888152602001878152602001336001600160a01b0316815260200160006001600160a01b031681526020018681526020016000815260200160006005811115610e4857610e4861352a565b90526000838152600e602090815260409091208251815581830151805193945084939192610e7e92600185019290910190612d04565b5060408201518051610e9a916002840191602090910190612d04565b506060820151600382015560808201516004820180546001600160a01b03199081166001600160a01b039384161790915560a0840151600580850180549093169190931617905560c0830151600683015560e083015160078301556101008301516008830180549192909160ff1916906001908490811115610f1e57610f1e61352a565b021790555050336000908152600f602090815260408220805460018101825590835290822001849055600d8054899350909190610f5c908490613464565b909155505060008281526011602052604081208054889290610f7f90849061342d565b9091555050600082815260116020526040902054606082015114610ffa5760405162461bcd60e51b815260206004820152602c60248201527f4c6f636b65642062616c616e636520646f65736e2774206d617463682061637460448201526b1a5d9a5d1e481c995dd85c9960a21b60648201526084016108a4565b60405182907fe46e166bf25839f3b9add9f41ca3c69267b637d5fac1a04f155f7a2e5b71503190600090a2509695505050505050565b6000818152600360205260408120546001600160a01b0316806107705760405162461bcd60e51b8152602060048201526018602482015277115490cdcc8c4e881a5b9d985b1a59081d1bdad95b88125160421b60448201526064016108a4565b60006001600160a01b0382166110fa5760405162461bcd60e51b815260206004820152602960248201527f4552433732313a2061646472657373207a65726f206973206e6f7420612076616044820152683634b21037bbb732b960b91b60648201526084016108a4565b506001600160a01b031660009081526004602052604090205490565b6000611121600c5490565b905090565b6000918252602082815260408084206001600160a01b0393909316845291905290205460ff1690565b606060028054610785906134be565b61117660008051602061359983398151915233611126565b6111925760405162461bcd60e51b81526004016108a49061336d565b60026000828152600e602052604090206008015460ff1660058111156111ba576111ba61352a565b146112005760405162461bcd60e51b81526020600482015260166024820152751058dd1a5d9a5d1e481b9bdd0818dbdb5c1b195d195960521b60448201526064016108a4565b61120a8133611462565b156112695760405162461bcd60e51b815260206004820152602960248201527f43616c6c65722068617320616c726561647920617070726f766564207468697360448201526820616374697669747960b81b60648201526084016108a4565b6000818152600e60205260408120600701805491611286836134f9565b90915550506000818152600e60205260409020600681015460079091015410611357576000818152600e6020818152604080842060088101805460ff19166003179055601083528185208054600181018255908652838620018054336001600160a01b0319909116179055858552601183528185205493909252600590910154905191926001600160a01b039091169182916108fc851502918591818181858888f1935050505015801561133e573d6000803e3d6000fd5b50600083815260116020526040812055610945836121cb565b6000818152601060209081526040808320805460018101825590845291832090910180546001600160a01b031916331790555182917f8c7be6f3ad0201fb345317f44341fd806ca66a4fe83a57faecab875ac32e306a91a25b50565b610c833383836121d4565b6001600160a01b0381166000908152600f602090815260409182902080548351818402810184019094528084526060939283018282801561141e57602002820191906000526020600020905b81548152602001906001019080831161140a575b50505050509050919050565b6114343383611cb5565b6114505760405162461bcd60e51b81526004016108a490613289565b61145c848484846122a3565b50505050565b6000828152601060209081526040808320805482518185028101850190935280835284938301828280156114bf57602002820191906000526020600020905b81546001600160a01b031681526001909101906020018083116114a1575b5050505050905060005b815181101561152257836001600160a01b03168282815181106114ee576114ee613556565b60200260200101516001600160a01b0316141561151057600192505050610770565b8061151a816134f9565b9150506114c9565b506000949350505050565b6115577f829b824e2329e205435d941c9f13baf578548505283d29261236d8e6596d463633611126565b61159c5760405162461bcd60e51b815260206004820152601660248201527521b0b63632b91034b9903737ba10309036b2b6b132b960511b60448201526064016108a4565b6000818152600e602052604081206008015460ff1660058111156115c2576115c261352a565b1461161d5760405162461bcd60e51b815260206004820152602560248201527f4163746976697479206e6f7420617661696c61626c6520666f722061737369676044820152641b9b595b9d60da1b60648201526084016108a4565b6000818152600e602052604090206005810180546001600160a01b0319163317905560080180546001919060ff191682800217905550336000818152600f6020908152604080832080546001810182559084529183209091018490555183917fe38e53bf69180bbcf2d6a862068ffc6480f931cc9330d81495239df161cdd3d391a350565b6060610770826122d6565b6116d77f829b824e2329e205435d941c9f13baf578548505283d29261236d8e6596d463633611126565b61171c5760405162461bcd60e51b815260206004820152601660248201527521b0b63632b91034b9903737ba10309036b2b6b132b960511b60448201526064016108a4565b60016000828152600e602052604090206008015460ff1660058111156117445761174461352a565b146117915760405162461bcd60e51b815260206004820152601860248201527f4163746976697479206e6f7420696e2070726f6772657373000000000000000060448201526064016108a4565b6000818152600e60205260409020600501546001600160a01b031633146118055760405162461bcd60e51b815260206004820152602260248201527f43616c6c657220646964206e6f7420636c61696d207468697320616374697669604482015261747960f01b60648201526084016108a4565b6000818152600e6020526040808220600801805460ff191660021790555182917f309533c897e843ca621a29503a4a5403b1e1ef08af596397c03f2a173127336991a250565b600034116118a95760405162461bcd60e51b815260206004820152602560248201527f4465706f73697420616d6f756e74206d75737420626520677265617465722074604482015264068616e20360dc1b60648201526084016108a4565b34600d60008282546118bb919061342d565b9091555050565b6000828152602081905260409020600101546118dd81611ea5565b6109458383611f33565b6118ff60008051602061359983398151915233611126565b61191b5760405162461bcd60e51b81526004016108a49061336d565b60016000828152600e602052604090206008015460ff1660058111156119435761194361352a565b14156119885760405162461bcd60e51b8152602060048201526014602482015273416374697669747920696e2070726f677265737360601b60448201526064016108a4565b60026000828152600e602052604090206008015460ff1660058111156119b0576119b061352a565b14156119f35760405162461bcd60e51b81526020600482015260126024820152711058dd1a5d9a5d1e4818dbdb5c1b195d195960721b60448201526064016108a4565b6000818152600e60205260409020600801805460ff19166005179055611a18816121cb565b60405181907f7666c2f553b5ed4528aef1c2337c6a7146aed3aec84e7fa96e41a78eb947035790600090a250565b611a5e60008051602061359983398151915233611126565b611a7a5760405162461bcd60e51b81526004016108a49061336d565b60026000828152600e602052604090206008015460ff166005811115611aa257611aa261352a565b14611ae85760405162461bcd60e51b81526020600482015260166024820152751058dd1a5d9a5d1e481b9bdd0818dbdb5c1b195d195960521b60448201526064016108a4565b611af28133611462565b15611b515760405162461bcd60e51b815260206004820152602960248201527f43616c6c65722068617320616c72656164792072656a6563746564207468697360448201526820616374697669747960b81b60648201526084016108a4565b6000818152600e60209081526040808320600801805460ff191660041790556010825280832080546001810182559084529183209091018054336001600160a01b03199091161790555182917feb3fa068456d0317e03ecb4f3b878e829b708b143e11a54e1caafd6225c1e47391a250565b60006001600160e01b0319821663780e9d6360e01b14806107705750610770826123df565b6000818152600360205260409020546001600160a01b03166113b05760405162461bcd60e51b8152602060048201526018602482015277115490cdcc8c4e881a5b9d985b1a59081d1bdad95b88125160421b60448201526064016108a4565b600081815260056020526040902080546001600160a01b0319166001600160a01b0384169081179091558190611c7c82611030565b6001600160a01b03167f8c5be1e5ebec7d5bd14f71427d1e84f3dd0314c0f7b2291e5b200ac8c7c3b92560405160405180910390a45050565b600080611cc183611030565b9050806001600160a01b0316846001600160a01b03161480611d0857506001600160a01b0380821660009081526006602090815260408083209388168352929052205460ff165b80611d2c5750836001600160a01b0316611d2184610808565b6001600160a01b0316145b949350505050565b826001600160a01b0316611d4782611030565b6001600160a01b031614611d6d5760405162461bcd60e51b81526004016108a490613328565b6001600160a01b038216611dcf5760405162461bcd60e51b8152602060048201526024808201527f4552433732313a207472616e7366657220746f20746865207a65726f206164646044820152637265737360e01b60648201526084016108a4565b611ddc838383600161241f565b826001600160a01b0316611def82611030565b6001600160a01b031614611e155760405162461bcd60e51b81526004016108a490613328565b600081815260056020908152604080832080546001600160a01b03199081169091556001600160a01b0387811680865260048552838620805460001901905590871680865283862080546001019055868652600390945282852080549092168417909155905184937fddf252ad1be2c89b69c2b068fc378daa952ba7f163c4a11628f55a4df523b3ef91a4505050565b6113b0813361242b565b611eb98282611126565b610c83576000828152602081815260408083206001600160a01b03851684529091529020805460ff19166001179055611eef3390565b6001600160a01b0316816001600160a01b0316837f2f8788117e7eff1d82e926ec794901d17c78024a50270940304540a733656f0d60405160405180910390a45050565b611f3d8282611126565b15610c83576000828152602081815260408083206001600160a01b0385168085529252808320805460ff1916905551339285917ff6391f5c32d9c69d2a47ea670b442974b53935d1edc7fd64eb21e047a839171b9190a45050565b6001600160a01b038216611fee5760405162461bcd60e51b815260206004820181905260248201527f4552433732313a206d696e7420746f20746865207a65726f206164647265737360448201526064016108a4565b6000818152600360205260409020546001600160a01b0316156120535760405162461bcd60e51b815260206004820152601c60248201527f4552433732313a20746f6b656e20616c7265616479206d696e7465640000000060448201526064016108a4565b61206160008383600161241f565b6000818152600360205260409020546001600160a01b0316156120c65760405162461bcd60e51b815260206004820152601c60248201527f4552433732313a20746f6b656e20616c7265616479206d696e7465640000000060448201526064016108a4565b6001600160a01b038216600081815260046020908152604080832080546001019055848352600390915280822080546001600160a01b0319168417905551839291907fddf252ad1be2c89b69c2b068fc378daa952ba7f163c4a11628f55a4df523b3ef908290a45050565b6000828152600360205260409020546001600160a01b03166121ac5760405162461bcd60e51b815260206004820152602e60248201527f45524337323155524953746f726167653a2055524920736574206f66206e6f6e60448201526d32bc34b9ba32b73a103a37b5b2b760911b60648201526084016108a4565b6000828152600760209081526040909120825161094592840190612d04565b6113b081612484565b816001600160a01b0316836001600160a01b031614156122365760405162461bcd60e51b815260206004820152601960248201527f4552433732313a20617070726f766520746f2063616c6c65720000000000000060448201526064016108a4565b6001600160a01b03838116600081815260066020908152604080832094871680845294825291829020805460ff191686151590811790915591519182527f17307eab39ab6107e8899845ad3d59bd9653f200f220920489ca2b5937696c31910160405180910390a3505050565b6122ae848484611d34565b6122ba848484846124c4565b61145c5760405162461bcd60e51b81526004016108a4906132d6565b60606122e182611be8565b600082815260076020526040812080546122fa906134be565b80601f0160208091040260200160405190810160405280929190818152602001828054612326906134be565b80156123735780601f1061234857610100808354040283529160200191612373565b820191906000526020600020905b81548152906001019060200180831161235657829003601f168201915b50505050509050600061239160408051602081019091526000815290565b90508051600014156123a4575092915050565b8151156123d65780826040516020016123be929190613151565b60405160208183030381529060405292505050919050565b611d2c846125d1565b60006001600160e01b031982166380ac58cd60e01b148061241057506001600160e01b03198216635b5e139f60e01b145b80610770575061077082612645565b61145c8484848461267a565b6124358282611126565b610c8357612442816127ae565b61244d8360206127c0565b60405160200161245e929190613180565b60408051601f198184030181529082905262461bcd60e51b82526108a491600401613276565b61248d8161295c565b600081815260076020526040902080546124a6906134be565b1590506113b05760008181526007602052604081206113b091612d88565b60006001600160a01b0384163b156125c657604051630a85bd0160e11b81526001600160a01b0385169063150b7a02906125089033908990889088906004016131f5565b602060405180830381600087803b15801561252257600080fd5b505af1925050508015612552575060408051601f3d908101601f1916820190925261254f9181019061304a565b60015b6125ac573d808015612580576040519150601f19603f3d011682016040523d82523d6000602084013e612585565b606091505b5080516125a45760405162461bcd60e51b81526004016108a4906132d6565b805181602001fd5b6001600160e01b031916630a85bd0160e11b149050611d2c565b506001949350505050565b60606125dc82611be8565b60006125f360408051602081019091526000815290565b90506000815111612613576040518060200160405280600081525061263e565b8061261d846129ff565b60405160200161262e929190613151565b6040516020818303038152906040525b9392505050565b60006001600160e01b03198216637965db0b60e01b148061077057506301ffc9a760e01b6001600160e01b0319831614610770565b60018111156126e95760405162461bcd60e51b815260206004820152603560248201527f455243373231456e756d657261626c653a20636f6e7365637574697665207472604482015274185b9cd9995c9cc81b9bdd081cdd5c1c1bdc9d1959605a1b60648201526084016108a4565b816001600160a01b0385166127455761274081600a80546000838152600b60205260408120829055600182018355919091527fc65a7bb8d6351c1cf70c95a316cc6a92839c986682d98bc35f958f4883f9d2a80155565b612768565b836001600160a01b0316856001600160a01b031614612768576127688582612a9c565b6001600160a01b0384166127845761277f81612b39565b6127a7565b846001600160a01b0316846001600160a01b0316146127a7576127a78482612be8565b5050505050565b60606107706001600160a01b03831660145b606060006127cf836002613445565b6127da90600261342d565b67ffffffffffffffff8111156127f2576127f261356c565b6040519080825280601f01601f19166020018201604052801561281c576020820181803683370190505b509050600360fc1b8160008151811061283757612837613556565b60200101906001600160f81b031916908160001a905350600f60fb1b8160018151811061286657612866613556565b60200101906001600160f81b031916908160001a905350600061288a846002613445565b61289590600161342d565b90505b600181111561290d576f181899199a1a9b1b9c1cb0b131b232b360811b85600f16601081106128c9576128c9613556565b1a60f81b8282815181106128df576128df613556565b60200101906001600160f81b031916908160001a90535060049490941c93612906816134a7565b9050612898565b50831561263e5760405162461bcd60e51b815260206004820181905260248201527f537472696e67733a20686578206c656e67746820696e73756666696369656e7460448201526064016108a4565b600061296782611030565b905061297781600084600161241f565b61298082611030565b600083815260056020908152604080832080546001600160a01b03199081169091556001600160a01b0385168085526004845282852080546000190190558785526003909352818420805490911690555192935084927fddf252ad1be2c89b69c2b068fc378daa952ba7f163c4a11628f55a4df523b3ef908390a45050565b60606000612a0c83612c2c565b600101905060008167ffffffffffffffff811115612a2c57612a2c61356c565b6040519080825280601f01601f191660200182016040528015612a56576020820181803683370190505b5090508181016020015b600019016f181899199a1a9b1b9c1cb0b131b232b360811b600a86061a8153600a8504945084612a8f57612a94565b612a60565b509392505050565b60006001612aa984611090565b612ab39190613464565b600083815260096020526040902054909150808214612b06576001600160a01b03841660009081526008602090815260408083208584528252808320548484528184208190558352600990915290208190555b5060009182526009602090815260408084208490556001600160a01b039094168352600881528383209183525290812055565b600a54600090612b4b90600190613464565b6000838152600b6020526040812054600a8054939450909284908110612b7357612b73613556565b9060005260206000200154905080600a8381548110612b9457612b94613556565b6000918252602080832090910192909255828152600b9091526040808220849055858252812055600a805480612bcc57612bcc613540565b6001900381819060005260206000200160009055905550505050565b6000612bf383611090565b6001600160a01b039093166000908152600860209081526040808320868452825280832085905593825260099052919091209190915550565b60008072184f03e93ff9f4daa797ed6e38ed64bf6a1f0160401b8310612c6b5772184f03e93ff9f4daa797ed6e38ed64bf6a1f0160401b830492506040015b6d04ee2d6d415b85acef81000000008310612c97576d04ee2d6d415b85acef8100000000830492506020015b662386f26fc100008310612cb557662386f26fc10000830492506010015b6305f5e1008310612ccd576305f5e100830492506008015b6127108310612ce157612710830492506004015b60648310612cf3576064830492506002015b600a83106107705760010192915050565b828054612d10906134be565b90600052602060002090601f016020900481019282612d325760008555612d78565b82601f10612d4b57805160ff1916838001178555612d78565b82800160010185558215612d78579182015b82811115612d78578251825591602001919060010190612d5d565b50612d84929150612dbe565b5090565b508054612d94906134be565b6000825580601f10612da4575050565b601f0160209004906000526020600020908101906113b091905b5b80821115612d845760008155600101612dbf565b600067ffffffffffffffff80841115612dee57612dee61356c565b604051601f8501601f19908116603f01168101908282118183101715612e1657612e1661356c565b81604052809350858152868686011115612e2f57600080fd5b858560208301376000602087830101525050509392505050565b80356001600160a01b0381168114612e6057600080fd5b919050565b600082601f830112612e7657600080fd5b61263e83833560208501612dd3565b600060208284031215612e9757600080fd5b61263e82612e49565b60008060408385031215612eb357600080fd5b612ebc83612e49565b9150612eca60208401612e49565b90509250929050565b600080600060608486031215612ee857600080fd5b612ef184612e49565b9250612eff60208501612e49565b9150604084013590509250925092565b60008060008060808587031215612f2557600080fd5b612f2e85612e49565b9350612f3c60208601612e49565b925060408501359150606085013567ffffffffffffffff811115612f5f57600080fd5b8501601f81018713612f7057600080fd5b612f7f87823560208401612dd3565b91505092959194509250565b60008060408385031215612f9e57600080fd5b612fa783612e49565b915060208301358015158114612fbc57600080fd5b809150509250929050565b60008060408385031215612fda57600080fd5b612fe383612e49565b946020939093013593505050565b60006020828403121561300357600080fd5b5035919050565b6000806040838503121561301d57600080fd5b82359150612eca60208401612e49565b60006020828403121561303f57600080fd5b813561263e81613582565b60006020828403121561305c57600080fd5b815161263e81613582565b600080600080600060a0868803121561307f57600080fd5b853567ffffffffffffffff8082111561309757600080fd5b6130a389838a01612e65565b965060208801359150808211156130b957600080fd5b6130c589838a01612e65565b9550604088013594506060880135935060808801359150808211156130e957600080fd5b506130f688828901612e65565b9150509295509295909350565b6000806040838503121561311657600080fd5b50508035926020909101359150565b6000815180845261313d81602086016020860161347b565b601f01601f19169290920160200192915050565b6000835161316381846020880161347b565b83519083019061317781836020880161347b565b01949350505050565b7f416363657373436f6e74726f6c3a206163636f756e74200000000000000000008152600083516131b881601785016020880161347b565b7001034b99036b4b9b9b4b733903937b6329607d1b60179184019182015283516131e981602884016020880161347b565b01602801949350505050565b6001600160a01b038581168252841660208201526040810183905260806060820181905260009061322890830184613125565b9695505050505050565b6020808252825182820181905260009190848201906040850190845b8181101561326a5783518352928401929184019160010161324e565b50909695505050505050565b60208152600061263e6020830184613125565b6020808252602d908201527f4552433732313a2063616c6c6572206973206e6f7420746f6b656e206f776e6560408201526c1c881bdc88185c1c1c9bdd9959609a1b606082015260800190565b60208082526032908201527f4552433732313a207472616e7366657220746f206e6f6e20455243373231526560408201527131b2b4bb32b91034b6b83632b6b2b73a32b960711b606082015260800190565b60208082526025908201527f4552433732313a207472616e736665722066726f6d20696e636f72726563742060408201526437bbb732b960d91b606082015260800190565b60208082526016908201527521b0b63632b91034b9903737ba1030903632b0b232b960511b604082015260600190565b60006101208b83528060208401526133b78184018c613125565b905082810360408401526133cb818b613125565b606084018a90526001600160a01b038981166080860152881660a085015260c0840187905260e084018690529150506006831061341857634e487b7160e01b600052602160045260246000fd5b826101008301529a9950505050505050505050565b6000821982111561344057613440613514565b500190565b600081600019048311821515161561345f5761345f613514565b500290565b60008282101561347657613476613514565b500390565b60005b8381101561349657818101518382015260200161347e565b8381111561145c5750506000910152565b6000816134b6576134b6613514565b506000190190565b600181811c908216806134d257607f821691505b602082108114156134f357634e487b7160e01b600052602260045260246000fd5b50919050565b600060001982141561350d5761350d613514565b5060010190565b634e487b7160e01b600052601160045260246000fd5b634e487b7160e01b600052602160045260246000fd5b634e487b7160e01b600052603160045260246000fd5b634e487b7160e01b600052603260045260246000fd5b634e487b7160e01b600052604160045260246000fd5b6001600160e01b0319811681146113b057600080fdfea870f1a91ab66a18174ae285449a007bea36a28441e5b44a847deb90f83e86eba2646970667358221220f5601cfea99c15a4427b7fcac8f41ae338172929992fff984b4c1adbc417623f64736f6c63430008070033",
	"linkReferences": {},
	"deployedLinkReferences": {}
}